{
  "contractName": "PetHelper",
  "abi": [
    {
      "inputs": [],
      "stateMutability": "nonpayable",
      "type": "constructor"
    },
    {
      "inputs": [],
      "name": "admin",
      "outputs": [
        {
          "internalType": "address",
          "name": "",
          "type": "address"
        }
      ],
      "stateMutability": "view",
      "type": "function",
      "constant": true
    },
    {
      "inputs": [
        {
          "internalType": "uint256",
          "name": "",
          "type": "uint256"
        }
      ],
      "name": "petsLedger",
      "outputs": [
        {
          "internalType": "uint256",
          "name": "id",
          "type": "uint256"
        },
        {
          "internalType": "uint256",
          "name": "currentBalance",
          "type": "uint256"
        },
        {
          "internalType": "uint256",
          "name": "historyBalance",
          "type": "uint256"
        },
        {
          "internalType": "address",
          "name": "personInCharge",
          "type": "address"
        },
        {
          "internalType": "bool",
          "name": "isValue",
          "type": "bool"
        }
      ],
      "stateMutability": "view",
      "type": "function",
      "constant": true
    },
    {
      "inputs": [],
      "name": "totalPets",
      "outputs": [
        {
          "internalType": "uint256",
          "name": "",
          "type": "uint256"
        }
      ],
      "stateMutability": "view",
      "type": "function",
      "constant": true
    },
    {
      "inputs": [
        {
          "internalType": "address",
          "name": "_personInCharge",
          "type": "address"
        },
        {
          "internalType": "uint256",
          "name": "_petId",
          "type": "uint256"
        }
      ],
      "name": "addNewPet",
      "outputs": [],
      "stateMutability": "nonpayable",
      "type": "function"
    },
    {
      "inputs": [
        {
          "internalType": "uint256",
          "name": "_petId",
          "type": "uint256"
        }
      ],
      "name": "helpPet",
      "outputs": [],
      "stateMutability": "payable",
      "type": "function",
      "payable": true
    },
    {
      "inputs": [
        {
          "internalType": "uint256",
          "name": "_petId",
          "type": "uint256"
        }
      ],
      "name": "withdrawPetFunds",
      "outputs": [],
      "stateMutability": "nonpayable",
      "type": "function"
    }
  ],
  "bytecode": "0x608060405234801561001057600080fd5b50336000806101000a81548173ffffffffffffffffffffffffffffffffffffffff021916908373ffffffffffffffffffffffffffffffffffffffff160217905550610db9806100606000396000f3fe6080604052600436106100555760003560e01c80630e5353451461005a578063448cd7121461009b5780637abda42c146100c4578063987eae8f146100e0578063d18fc0631461010b578063f851a44014610134575b600080fd5b34801561006657600080fd5b50610081600480360381019061007c919061089e565b61015f565b604051610092959493929190610abc565b60405180910390f35b3480156100a757600080fd5b506100c260048036038101906100bd9190610862565b6101c2565b005b6100de60048036038101906100d9919061089e565b6103b8565b005b3480156100ec57600080fd5b506100f56104c2565b6040516101029190610aa1565b60405180910390f35b34801561011757600080fd5b50610132600480360381019061012d919061089e565b6104c8565b005b34801561014057600080fd5b50610149610814565b60405161015691906109c6565b60405180910390f35b60026020528060005260406000206000915090508060000154908060010154908060020154908060030160009054906101000a900473ffffffffffffffffffffffffffffffffffffffff16908060030160149054906101000a900460ff16905085565b60008054906101000a900473ffffffffffffffffffffffffffffffffffffffff1673ffffffffffffffffffffffffffffffffffffffff163373ffffffffffffffffffffffffffffffffffffffff1614610250576040517f08c379a000000000000000000000000000000000000000000000000000000000815260040161024790610a01565b60405180910390fd5b600015156002600083815260200190815260200160002060030160149054906101000a900460ff161515146102ba576040517f08c379a00000000000000000000000000000000000000000000000000000000081526004016102b190610a81565b60405180910390fd5b6040518060a00160405280600154815260200160008152602001600081526020018373ffffffffffffffffffffffffffffffffffffffff1681526020016001151581525060026000600154815260200190815260200160002060008201518160000155602082015181600101556040820151816002015560608201518160030160006101000a81548173ffffffffffffffffffffffffffffffffffffffff021916908373ffffffffffffffffffffffffffffffffffffffff16021790555060808201518160030160146101000a81548160ff02191690831515021790555090505060018060008282546103ad9190610b20565b925050819055505050565b600034116103fb576040517f08c379a00000000000000000000000000000000000000000000000000000000081526004016103f290610a21565b60405180910390fd5b600115156002600083815260200190815260200160002060030160149054906101000a900460ff16151514610465576040517f08c379a000000000000000000000000000000000000000000000000000000000815260040161045c90610a61565b60405180910390fd5b3460026000838152602001908152602001600020600201600082825461048b9190610b20565b92505081905550346002600083815260200190815260200160002060010160008282546104b89190610b20565b9250508190555050565b60015481565b6002600082815260200190815260200160002060030160009054906101000a900473ffffffffffffffffffffffffffffffffffffffff1673ffffffffffffffffffffffffffffffffffffffff163373ffffffffffffffffffffffffffffffffffffffff161480610583575060008054906101000a900473ffffffffffffffffffffffffffffffffffffffff1673ffffffffffffffffffffffffffffffffffffffff163373ffffffffffffffffffffffffffffffffffffffff16145b6105c2576040517f08c379a00000000000000000000000000000000000000000000000000000000081526004016105b990610a41565b60405180910390fd5b600115156002600083815260200190815260200160002060030160149054906101000a900460ff1615151461062c576040517f08c379a000000000000000000000000000000000000000000000000000000000815260040161062390610a61565b60405180910390fd5b6000600260008381526020019081526020016000206001015411610685576040517f08c379a000000000000000000000000000000000000000000000000000000000815260040161067c906109e1565b60405180910390fd5b600060026000838152602001908152602001600020600101549050600060026000848152602001908152602001600020600101819055506002600083815260200190815260200160002060030160009054906101000a900473ffffffffffffffffffffffffffffffffffffffff1673ffffffffffffffffffffffffffffffffffffffff163373ffffffffffffffffffffffffffffffffffffffff1614156107a8576002600083815260200190815260200160002060030160009054906101000a900473ffffffffffffffffffffffffffffffffffffffff1673ffffffffffffffffffffffffffffffffffffffff166108fc829081150290604051600060405180830381858888f193505050501580156107a2573d6000803e3d6000fd5b50610810565b60008054906101000a900473ffffffffffffffffffffffffffffffffffffffff1673ffffffffffffffffffffffffffffffffffffffff166108fc829081150290604051600060405180830381858888f1935050505015801561080e573d6000803e3d6000fd5b505b5050565b60008054906101000a900473ffffffffffffffffffffffffffffffffffffffff1681565b60008135905061084781610d55565b92915050565b60008135905061085c81610d6c565b92915050565b6000806040838503121561087557600080fd5b600061088385828601610838565b92505060206108948582860161084d565b9150509250929050565b6000602082840312156108b057600080fd5b60006108be8482850161084d565b91505092915050565b6108d081610b76565b82525050565b6108df81610b88565b82525050565b60006108f2602383610b0f565b91506108fd82610bed565b604082019050919050565b6000610915601783610b0f565b915061092082610c3c565b602082019050919050565b6000610938602183610b0f565b915061094382610c65565b604082019050919050565b600061095b603083610b0f565b915061096682610cb4565b604082019050919050565b600061097e601683610b0f565b915061098982610d03565b602082019050919050565b60006109a1601483610b0f565b91506109ac82610d2c565b602082019050919050565b6109c081610bb4565b82525050565b60006020820190506109db60008301846108c7565b92915050565b600060208201905081810360008301526109fa816108e5565b9050919050565b60006020820190508181036000830152610a1a81610908565b9050919050565b60006020820190508181036000830152610a3a8161092b565b9050919050565b60006020820190508181036000830152610a5a8161094e565b9050919050565b60006020820190508181036000830152610a7a81610971565b9050919050565b60006020820190508181036000830152610a9a81610994565b9050919050565b6000602082019050610ab660008301846109b7565b92915050565b600060a082019050610ad160008301886109b7565b610ade60208301876109b7565b610aeb60408301866109b7565b610af860608301856108c7565b610b0560808301846108d6565b9695505050505050565b600082825260208201905092915050565b6000610b2b82610bb4565b9150610b3683610bb4565b9250827fffffffffffffffffffffffffffffffffffffffffffffffffffffffffffffffff03821115610b6b57610b6a610bbe565b5b828201905092915050565b6000610b8182610b94565b9050919050565b60008115159050919050565b600073ffffffffffffffffffffffffffffffffffffffff82169050919050565b6000819050919050565b7f4e487b7100000000000000000000000000000000000000000000000000000000600052601160045260246000fd5b7f546869732070657420686173206e6f2062616c616e636520746f20776974686460008201527f7261770000000000000000000000000000000000000000000000000000000000602082015250565b7f6f6e6c792061646d696e2063616e206164642070657473000000000000000000600082015250565b7f54686520616d6f756e7420746f206465706f736974206d757374206265203e2060008201527f3000000000000000000000000000000000000000000000000000000000000000602082015250565b7f4f6e6c7920706572736f6e496e43686172676520616e642061646d696e20636160008201527f6e2077697468647261772066756e647300000000000000000000000000000000602082015250565b7f546869732070657420646f206e6f742065786973747300000000000000000000600082015250565b7f506574496420616c726561647920696e20757365000000000000000000000000600082015250565b610d5e81610b76565b8114610d6957600080fd5b50565b610d7581610bb4565b8114610d8057600080fd5b5056fea2646970667358221220501200419b79797410ee1d8fd17777f4e3ef42ac4a1018095283b861ba8ad85f64736f6c63430008030033",
  "immutableReferences": {},
  "source": "// SPDX-License-Identifier: MIT\r\npragma solidity = 0.8.3;\r\ncontract PetHelper{\r\n    address public admin;\r\n    uint public totalPets;\r\n    mapping(uint => PetStruct) public petsLedger;\r\n    struct PetStruct{\r\n        uint id;\r\n        uint currentBalance;\r\n        uint historyBalance;\r\n        address personInCharge;\r\n        bool isValue;\r\n    }\r\n    constructor() {\r\n        admin = msg.sender;\r\n    }\r\n    function addNewPet(address _personInCharge, uint _petId) external{\r\n        require(msg.sender == admin, 'only admin can add pets');\r\n        require(petsLedger[_petId].isValue == false, 'PetId already in use');\r\n        petsLedger[totalPets] = PetStruct(totalPets, 0, 0, _personInCharge, true);\r\n        totalPets +=1;\r\n    }\r\n    function helpPet(uint _petId) external payable{\r\n        require(msg.value > 0, 'The amount to deposit must be > 0');\r\n        require(petsLedger[_petId].isValue == true, 'This pet do not exists');\r\n        petsLedger[_petId].historyBalance += msg.value;\r\n        petsLedger[_petId].currentBalance += msg.value;\r\n    }\r\n    function withdrawPetFunds(uint _petId) external {\r\n        require(msg.sender == petsLedger[_petId].personInCharge || msg.sender == admin, 'Only personInCharge and admin can withdraw funds');\r\n        require(petsLedger[_petId].isValue == true, 'This pet do not exists');\r\n        require(petsLedger[_petId].currentBalance > 0, 'This pet has no balance to withdraw');\r\n        uint amountToWithdraw = petsLedger[_petId].currentBalance;\r\n        petsLedger[_petId].currentBalance = 0;\r\n        if(msg.sender == petsLedger[_petId].personInCharge){\r\n            payable(petsLedger[_petId].personInCharge).transfer(amountToWithdraw);\r\n        }else{\r\n            payable(admin).transfer(amountToWithdraw);\r\n        }\r\n    }\r\n}",
  "sourcePath": "C:/Users/laptop/githubprojects/blockchain-dev/PetsHelperDapp/src/contracts/PetHelper.sol",
  "compiler": {
    "name": "solc",
    "version": "0.8.3+commit.8d00100c.Emscripten.clang"
  },
  "schemaVersion": "3.3.4",
  "updatedAt": "2021-04-11T06:30:53.822Z",
  "networkType": "ethereum",
  "devdoc": {
    "kind": "dev",
    "methods": {},
    "version": 1
  },
  "userdoc": {
    "kind": "user",
    "methods": {},
    "version": 1
  }
}